{
  "address": "0x5147DaEbF0b779927c51c2527112A69d53cBCD67",
  "abi": [
    {
      "inputs": [
        {
          "internalType": "contract GnosisSafe",
          "name": "safeSingleton_",
          "type": "address"
        },
        {
          "internalType": "address",
          "name": "bridge_",
          "type": "address"
        }
      ],
      "stateMutability": "payable",
      "type": "constructor"
    },
    {
      "anonymous": false,
      "inputs": [
        {
          "indexed": false,
          "internalType": "address",
          "name": "subSafe",
          "type": "address"
        },
        {
          "indexed": false,
          "internalType": "address",
          "name": "receiverModule",
          "type": "address"
        }
      ],
      "name": "Deployed",
      "type": "event"
    },
    {
      "inputs": [],
      "name": "bridge",
      "outputs": [
        {
          "internalType": "address",
          "name": "",
          "type": "address"
        }
      ],
      "stateMutability": "view",
      "type": "function"
    },
    {
      "inputs": [
        {
          "internalType": "address",
          "name": "originSafe",
          "type": "address"
        },
        {
          "internalType": "address[]",
          "name": "owners",
          "type": "address[]"
        },
        {
          "internalType": "uint256",
          "name": "threshold",
          "type": "uint256"
        }
      ],
      "name": "deploy",
      "outputs": [],
      "stateMutability": "nonpayable",
      "type": "function"
    },
    {
      "inputs": [
        {
          "internalType": "address",
          "name": "module",
          "type": "address"
        }
      ],
      "name": "initializeSubSafe",
      "outputs": [],
      "stateMutability": "nonpayable",
      "type": "function"
    },
    {
      "inputs": [],
      "name": "safeSingleton",
      "outputs": [
        {
          "internalType": "contract GnosisSafe",
          "name": "",
          "type": "address"
        }
      ],
      "stateMutability": "view",
      "type": "function"
    }
  ],
  "transactionHash": "0xa393a933e5ca984644ceaa0d72082579507566735fb05f75fb151720ec2baa24",
  "args": [
    "0x91cE3e56314bCd0f01e305DBf1169314B1222541",
    "0xF6BEEeBB578e214CA9E23B0e9683454Ff88Ed2A7"
  ],
  "numDeployments": 21,
  "solcInputHash": "b79a547dcad16072eb0b48e0283e9e4e",
  "bytecode": "0x60c060405260405161289438038061289483398101604081905261002291610051565b6001600160a01b039182166080521660a05261008b565b6001600160a01b038116811461004e57600080fd5b50565b6000806040838503121561006457600080fd5b825161006f81610039565b602084015190925061008081610039565b809150509250929050565b60805160a0516127d16100c36000396000818160ce015281816101cf015261025c015260008181606b015261017f01526127d16000f3fe608060405234801561001057600080fd5b506004361061004c5760003560e01c80633d3c5ae114610051578063ac7d146b14610066578063b4ab9b62146100b6578063e78cea92146100c9575b600080fd5b61006461005f3660046106bb565b6100f0565b005b61008d7f000000000000000000000000000000000000000000000000000000000000000081565b60405173ffffffffffffffffffffffffffffffffffffffff909116815260200160405180910390f35b6100646100c4366004610747565b610480565b61008d7f000000000000000000000000000000000000000000000000000000000000000081565b60006101bc60004360405160200161010a91815260200190565b60405160208183030381529060405280519060200120604051806020016101309061066b565b7fffffffffffffffffffffffffffffffffffffffffffffffffffffffffffffffe082820381018352601f9091011660408190526101a8919073ffffffffffffffffffffffffffffffffffffffff7f00000000000000000000000000000000000000000000000000000000000000001690602001610786565b604051602081830303815290604052610505565b905060004661e7040361024d57600082877f00000000000000000000000000000000000000000000000000000000000000006040516101fa90610678565b73ffffffffffffffffffffffffffffffffffffffff938416815291831660208301529091166040820152606001604051809103906000f080158015610243573d6000803e3d6000fd5b5091506102ee9050565b466105a20361028757600082877f00000000000000000000000000000000000000000000000000000000000000006040516101fa90610685565b6040517f08c379a000000000000000000000000000000000000000000000000000000000815260206004820152601160248201527f556e737570706f7274656420636861696e00000000000000000000000000000060448201526064015b60405180910390fd5b8173ffffffffffffffffffffffffffffffffffffffff1663b63e800d868686308660405160240161033b919073ffffffffffffffffffffffffffffffffffffffff91909116815260200190565b604080517fffffffffffffffffffffffffffffffffffffffffffffffffffffffffffffffe08184030181529181526020820180517bffffffffffffffffffffffffffffffffffffffffffffffffffffffff167fb4ab9b6200000000000000000000000000000000000000000000000000000000179052517fffffffff0000000000000000000000000000000000000000000000000000000060e088901b1681526103f59594939291906000908190819081906004016107f2565b600060405180830381600087803b15801561040f57600080fd5b505af1158015610423573d6000803e3d6000fd5b50506040805173ffffffffffffffffffffffffffffffffffffffff8087168252851660208201527f09e48df7857bd0c1e0d31bb8a85d42cf1874817895f171c917f6ee2cea73ec20935001905060405180910390a1505050505050565b6040517f610b592500000000000000000000000000000000000000000000000000000000815273ffffffffffffffffffffffffffffffffffffffff821660048201523090819063610b592590602401600060405180830381600087803b1580156104e957600080fd5b505af11580156104fd573d6000803e3d6000fd5b505050505050565b600083471015610571576040517f08c379a000000000000000000000000000000000000000000000000000000000815260206004820152601d60248201527f437265617465323a20696e73756666696369656e742062616c616e636500000060448201526064016102e5565b81516000036105dc576040517f08c379a000000000000000000000000000000000000000000000000000000000815260206004820181905260248201527f437265617465323a2062797465636f6465206c656e677468206973207a65726f60448201526064016102e5565b8282516020840186f5905073ffffffffffffffffffffffffffffffffffffffff8116610664576040517f08c379a000000000000000000000000000000000000000000000000000000000815260206004820152601960248201527f437265617465323a204661696c6564206f6e206465706c6f790000000000000060448201526064016102e5565b9392505050565b610198806108f783390190565b610ede80610a8f83390190565b610e2f8061196d83390190565b803573ffffffffffffffffffffffffffffffffffffffff811681146106b657600080fd5b919050565b600080600080606085870312156106d157600080fd5b6106da85610692565b9350602085013567ffffffffffffffff808211156106f757600080fd5b818701915087601f83011261070b57600080fd5b81358181111561071a57600080fd5b8860208260051b850101111561072f57600080fd5b95986020929092019750949560400135945092505050565b60006020828403121561075957600080fd5b61066482610692565b60005b8381101561077d578181015183820152602001610765565b50506000910152565b60008351610798818460208801610762565b9190910191825250602001919050565b600081518084526107c0816020860160208601610762565b601f017fffffffffffffffffffffffffffffffffffffffffffffffffffffffffffffffe0169290920160200192915050565b6101008082528101899052600061012082018b825b8c8110156108435773ffffffffffffffffffffffffffffffffffffffff61082d83610692565b1683526020928301929190910190600101610807565b505089602084015261086d604084018a73ffffffffffffffffffffffffffffffffffffffff169052565b828103606084015261087f81896107a8565b9150506108a4608083018773ffffffffffffffffffffffffffffffffffffffff169052565b73ffffffffffffffffffffffffffffffffffffffff851660a08301528360c08301526108e860e083018473ffffffffffffffffffffffffffffffffffffffff169052565b9a995050505050505050505056fe608060405234801561001057600080fd5b5060405161019838038061019883398101604081905261002f916100b9565b6001600160a01b0381166100945760405162461bcd60e51b815260206004820152602260248201527f496e76616c69642073696e676c65746f6e20616464726573732070726f766964604482015261195960f21b606482015260840160405180910390fd5b600080546001600160a01b0319166001600160a01b03929092169190911790556100e9565b6000602082840312156100cb57600080fd5b81516001600160a01b03811681146100e257600080fd5b9392505050565b60a1806100f76000396000f3fe6080604052600073ffffffffffffffffffffffffffffffffffffffff8154167fa619486e00000000000000000000000000000000000000000000000000000000823503604d57808252602082f35b3682833781823684845af490503d82833e806066573d82fd5b503d81f3fea26469706673582212202ee72963c47e51f972c5294b98c1505a796f511631dde635e11c3e1801b9a9e164736f6c6343000813003360a0604052604051610ede380380610ede83398101604081905261002291610073565b600080546001600160a01b03199081166001600160a01b03958616179091556001805490911692841692909217909155166080526100c0565b6001600160a01b038116811461007057600080fd5b50565b60008060006060848603121561008857600080fd5b83516100938161005b565b60208501519093506100a48161005b565b60408501519092506100b58161005b565b809150509250925092565b608051610df66100e86000396000818160d40152818161010e01526101e10152610df66000f3fe608060405234801561001057600080fd5b506004361061004c5760003560e01c8063186f0354146100515780632b59241f1461009a578063606fe93a146100ba578063e6b8fbf0146100cf575b600080fd5b6000546100719073ffffffffffffffffffffffffffffffffffffffff1681565b60405173ffffffffffffffffffffffffffffffffffffffff909116815260200160405180910390f35b6001546100719073ffffffffffffffffffffffffffffffffffffffff1681565b6100cd6100c8366004610a69565b6100f6565b005b6100717f000000000000000000000000000000000000000000000000000000000000000081565b3373ffffffffffffffffffffffffffffffffffffffff7f0000000000000000000000000000000000000000000000000000000000000000161461019a576040517f08c379a000000000000000000000000000000000000000000000000000000000815260206004820152601060248201527f4e6f74204d616e746c654272696467650000000000000000000000000000000060448201526064015b60405180910390fd5b600154604080517f67e404ce000000000000000000000000000000000000000000000000000000008152905173ffffffffffffffffffffffffffffffffffffffff928316927f000000000000000000000000000000000000000000000000000000000000000016916367e404ce9160048083019260209291908290030181865afa15801561022c573d6000803e3d6000fd5b505050506040513d601f19601f820116820180604052508101906102509190610b0d565b73ffffffffffffffffffffffffffffffffffffffff16146102cd576040517f08c379a000000000000000000000000000000000000000000000000000000000815260206004820152601060248201527f4e6f74206f726967696e53656e646572000000000000000000000000000000006044820152606401610191565b61030b838380806020026020016040519081016040528093929190818152602001838360200280828437600092019190915250859250610310915050565b505050565b60008060009054906101000a900473ffffffffffffffffffffffffffffffffffffffff1673ffffffffffffffffffffffffffffffffffffffff1663a0e67e2b6040518163ffffffff1660e01b8152600401600060405180830381865afa15801561037e573d6000803e3d6000fd5b505050506040513d6000823e601f3d9081017fffffffffffffffffffffffffffffffffffffffffffffffffffffffffffffffe01682016040526103c49190810190610b5e565b60008054604080516205555560248201819052604480830189905283518084039091018152606490920183526020820180517bffffffffffffffffffffffffffffffffffffffffffffffffffffffff167f0d582f130000000000000000000000000000000000000000000000000000000017905291517f468721a7000000000000000000000000000000000000000000000000000000008152949550909373ffffffffffffffffffffffffffffffffffffffff9092169263468721a792610492928592918290600401610c41565b6020604051808303816000875af11580156104b1573d6000803e3d6000fd5b505050506040513d601f19601f820116820180604052508101906104d59190610d10565b61053b576040517f08c379a000000000000000000000000000000000000000000000000000000000815260206004820152601560248201527f4164642074656d70206f776e6572206661696c656400000000000000000000006044820152606401610191565b60005b82518110156106f357600083828151811061055b5761055b610d32565b602090810291909101810151600080546040805173ffffffffffffffffffffffffffffffffffffffff8981166024830152808616604483015260648083018d9052835180840390910181526084909201835295810180517bffffffffffffffffffffffffffffffffffffffffffffffffffffffff167ff8dc5dd90000000000000000000000000000000000000000000000000000000017905290517f468721a700000000000000000000000000000000000000000000000000000000815293955093169263468721a79261063792859290918290600401610c41565b6020604051808303816000875af1158015610656573d6000803e3d6000fd5b505050506040513d601f19601f8201168201806040525081019061067a9190610d10565b6106e0576040517f08c379a000000000000000000000000000000000000000000000000000000000815260206004820152601360248201527f52656d6f7665206f776e6572206661696c6564000000000000000000000000006044820152606401610191565b50806106eb81610d61565b91505061053e565b5060005b84518110156108a457600085828151811061071457610714610d32565b602090810291909101810151600080546040805173ffffffffffffffffffffffffffffffffffffffff808616602483015260448083018d9052835180840390910181526064909201835295810180517bffffffffffffffffffffffffffffffffffffffffffffffffffffffff167f0d582f130000000000000000000000000000000000000000000000000000000017905290517f468721a700000000000000000000000000000000000000000000000000000000815293955093169263468721a7926107e892859290918290600401610c41565b6020604051808303816000875af1158015610807573d6000803e3d6000fd5b505050506040513d601f19601f8201168201806040525081019061082b9190610d10565b610891576040517f08c379a000000000000000000000000000000000000000000000000000000000815260206004820152601060248201527f416464206f776e6572206661696c6564000000000000000000000000000000006044820152606401610191565b508061089c81610d61565b9150506106f7565b5060008054855173ffffffffffffffffffffffffffffffffffffffff9091169163468721a791839190829063f8dc5dd9908a9084906108e5576108e5610d32565b602090810291909101015160405173ffffffffffffffffffffffffffffffffffffffff91821660248201529088166044820152606481018a9052608401604080518083037fffffffffffffffffffffffffffffffffffffffffffffffffffffffffffffffe001815291815260208201805160e094851b7bffffffffffffffffffffffffffffffffffffffffffffffffffffffff909116179052519186901b7fffffffff000000000000000000000000000000000000000000000000000000001682526109ba9493925090600090600401610c41565b6020604051808303816000875af11580156109d9573d6000803e3d6000fd5b505050506040513d601f19601f820116820180604052508101906109fd9190610d10565b610a63576040517f08c379a000000000000000000000000000000000000000000000000000000000815260206004820152601860248201527f52656d6f76652074656d70206f776e6572206661696c656400000000000000006044820152606401610191565b50505050565b600080600060408486031215610a7e57600080fd5b833567ffffffffffffffff80821115610a9657600080fd5b818601915086601f830112610aaa57600080fd5b813581811115610ab957600080fd5b8760208260051b8501011115610ace57600080fd5b6020928301989097509590910135949350505050565b805173ffffffffffffffffffffffffffffffffffffffff81168114610b0857600080fd5b919050565b600060208284031215610b1f57600080fd5b610b2882610ae4565b9392505050565b7f4e487b7100000000000000000000000000000000000000000000000000000000600052604160045260246000fd5b60006020808385031215610b7157600080fd5b825167ffffffffffffffff80821115610b8957600080fd5b818501915085601f830112610b9d57600080fd5b815181811115610baf57610baf610b2f565b8060051b6040517fffffffffffffffffffffffffffffffffffffffffffffffffffffffffffffffe0603f83011681018181108582111715610bf257610bf2610b2f565b604052918252848201925083810185019188831115610c1057600080fd5b938501935b82851015610c3557610c2685610ae4565b84529385019392850192610c15565b98975050505050505050565b73ffffffffffffffffffffffffffffffffffffffff8516815260006020858184015260806040840152845180608085015260005b81811015610c915786810183015185820160a001528201610c75565b50600060a0828601015260a07fffffffffffffffffffffffffffffffffffffffffffffffffffffffffffffffe0601f8301168501019250505060028310610d01577f4e487b7100000000000000000000000000000000000000000000000000000000600052602160045260246000fd5b82606083015295945050505050565b600060208284031215610d2257600080fd5b81518015158114610b2857600080fd5b7f4e487b7100000000000000000000000000000000000000000000000000000000600052603260045260246000fd5b60007fffffffffffffffffffffffffffffffffffffffffffffffffffffffffffffffff8203610db9577f4e487b7100000000000000000000000000000000000000000000000000000000600052601160045260246000fd5b506001019056fea2646970667358221220bebbf256dd197e0b2df65550e0f609082c0688a2e87dd8b8b05f37216631b0da64736f6c6343000813003360a0604052604051610e2f380380610e2f83398101604081905261002291610073565b600080546001600160a01b03199081166001600160a01b03958616179091556001805490911692841692909217909155166080526100c0565b6001600160a01b038116811461007057600080fd5b50565b60008060006060848603121561008857600080fd5b83516100938161005b565b60208501519093506100a48161005b565b60408501519092506100b58161005b565b809150509250925092565b608051610d556100da600039600060ee0152610d556000f3fe60806040526004361061003f5760003560e01c80631806b5f214610044578063186f0354146100595780632b59241f146100af5780635d43792c146100dc575b600080fd5b6100576100523660046109ab565b610110565b005b34801561006557600080fd5b506000546100869073ffffffffffffffffffffffffffffffffffffffff1681565b60405173ffffffffffffffffffffffffffffffffffffffff909116815260200160405180910390f35b3480156100bb57600080fd5b506001546100869073ffffffffffffffffffffffffffffffffffffffff1681565b3480156100e857600080fd5b506100867f000000000000000000000000000000000000000000000000000000000000000081565b63ffffffff821615610183576040517f08c379a000000000000000000000000000000000000000000000000000000000815260206004820152601e60248201527f6f6e4d65737361676552656365697665643a204e6f742066726f6d204c31000060448201526064015b60405180910390fd5b6000808280602001905181019061019a9190610b15565b915091506101a882826101af565b5050505050565b60008060009054906101000a900473ffffffffffffffffffffffffffffffffffffffff1673ffffffffffffffffffffffffffffffffffffffff1663a0e67e2b6040518163ffffffff1660e01b8152600401600060405180830381865afa15801561021d573d6000803e3d6000fd5b505050506040513d6000823e601f3d9081017fffffffffffffffffffffffffffffffffffffffffffffffffffffffffffffffe01682016040526102639190810190610b5c565b60008054604080516205555560248201819052604480830189905283518084039091018152606490920183526020820180517bffffffffffffffffffffffffffffffffffffffffffffffffffffffff167f0d582f130000000000000000000000000000000000000000000000000000000017905291517f468721a7000000000000000000000000000000000000000000000000000000008152949550909373ffffffffffffffffffffffffffffffffffffffff9092169263468721a792610331928592918290600401610b99565b6020604051808303816000875af1158015610350573d6000803e3d6000fd5b505050506040513d601f19601f820116820180604052508101906103749190610c68565b6103da576040517f08c379a000000000000000000000000000000000000000000000000000000000815260206004820152601560248201527f4164642074656d70206f776e6572206661696c65640000000000000000000000604482015260640161017a565b60005b82518110156105925760008382815181106103fa576103fa610c91565b602090810291909101810151600080546040805173ffffffffffffffffffffffffffffffffffffffff8981166024830152808616604483015260648083018d9052835180840390910181526084909201835295810180517bffffffffffffffffffffffffffffffffffffffffffffffffffffffff167ff8dc5dd90000000000000000000000000000000000000000000000000000000017905290517f468721a700000000000000000000000000000000000000000000000000000000815293955093169263468721a7926104d692859290918290600401610b99565b6020604051808303816000875af11580156104f5573d6000803e3d6000fd5b505050506040513d601f19601f820116820180604052508101906105199190610c68565b61057f576040517f08c379a000000000000000000000000000000000000000000000000000000000815260206004820152601360248201527f52656d6f7665206f776e6572206661696c656400000000000000000000000000604482015260640161017a565b508061058a81610cc0565b9150506103dd565b5060005b84518110156107435760008582815181106105b3576105b3610c91565b602090810291909101810151600080546040805173ffffffffffffffffffffffffffffffffffffffff808616602483015260448083018d9052835180840390910181526064909201835295810180517bffffffffffffffffffffffffffffffffffffffffffffffffffffffff167f0d582f130000000000000000000000000000000000000000000000000000000017905290517f468721a700000000000000000000000000000000000000000000000000000000815293955093169263468721a79261068792859290918290600401610b99565b6020604051808303816000875af11580156106a6573d6000803e3d6000fd5b505050506040513d601f19601f820116820180604052508101906106ca9190610c68565b610730576040517f08c379a000000000000000000000000000000000000000000000000000000000815260206004820152601060248201527f416464206f776e6572206661696c656400000000000000000000000000000000604482015260640161017a565b508061073b81610cc0565b915050610596565b5060008054855173ffffffffffffffffffffffffffffffffffffffff9091169163468721a791839190829063f8dc5dd9908a90849061078457610784610c91565b602090810291909101015160405173ffffffffffffffffffffffffffffffffffffffff91821660248201529088166044820152606481018a9052608401604080518083037fffffffffffffffffffffffffffffffffffffffffffffffffffffffffffffffe001815291815260208201805160e094851b7bffffffffffffffffffffffffffffffffffffffffffffffffffffffff909116179052519186901b7fffffffff000000000000000000000000000000000000000000000000000000001682526108599493925090600090600401610b99565b6020604051808303816000875af1158015610878573d6000803e3d6000fd5b505050506040513d601f19601f8201168201806040525081019061089c9190610c68565b610902576040517f08c379a000000000000000000000000000000000000000000000000000000000815260206004820152601860248201527f52656d6f76652074656d70206f776e6572206661696c65640000000000000000604482015260640161017a565b50505050565b73ffffffffffffffffffffffffffffffffffffffff8116811461092a57600080fd5b50565b7f4e487b7100000000000000000000000000000000000000000000000000000000600052604160045260246000fd5b604051601f82017fffffffffffffffffffffffffffffffffffffffffffffffffffffffffffffffe016810167ffffffffffffffff811182821017156109a3576109a361092d565b604052919050565b6000806000606084860312156109c057600080fd5b83356109cb81610908565b925060208481013563ffffffff811681146109e557600080fd5b9250604085013567ffffffffffffffff80821115610a0257600080fd5b818701915087601f830112610a1657600080fd5b813581811115610a2857610a2861092d565b610a58847fffffffffffffffffffffffffffffffffffffffffffffffffffffffffffffffe0601f8401160161095c565b91508082528884828501011115610a6e57600080fd5b80848401858401376000848284010152508093505050509250925092565b600082601f830112610a9d57600080fd5b8151602067ffffffffffffffff821115610ab957610ab961092d565b8160051b610ac882820161095c565b9283528481018201928281019087851115610ae257600080fd5b83870192505b84831015610b0a578251610afb81610908565b82529183019190830190610ae8565b979650505050505050565b60008060408385031215610b2857600080fd5b825167ffffffffffffffff811115610b3f57600080fd5b610b4b85828601610a8c565b925050602083015190509250929050565b600060208284031215610b6e57600080fd5b815167ffffffffffffffff811115610b8557600080fd5b610b9184828501610a8c565b949350505050565b73ffffffffffffffffffffffffffffffffffffffff8516815260006020858184015260806040840152845180608085015260005b81811015610be95786810183015185820160a001528201610bcd565b50600060a0828601015260a07fffffffffffffffffffffffffffffffffffffffffffffffffffffffffffffffe0601f8301168501019250505060028310610c59577f4e487b7100000000000000000000000000000000000000000000000000000000600052602160045260246000fd5b82606083015295945050505050565b600060208284031215610c7a57600080fd5b81518015158114610c8a57600080fd5b9392505050565b7f4e487b7100000000000000000000000000000000000000000000000000000000600052603260045260246000fd5b60007fffffffffffffffffffffffffffffffffffffffffffffffffffffffffffffffff8203610d18577f4e487b7100000000000000000000000000000000000000000000000000000000600052601160045260246000fd5b506001019056fea264697066735822122053d7adca6b712ee9b19830f5e0af02eee14f952693662f70e18d052e01d25ee364736f6c63430008130033a264697066735822122022cc545557a8067da03c2beb7598ec72a2684a52e8eee611e88dbab52e5cee8d64736f6c63430008130033",
  "devdoc": {
    "kind": "dev",
    "methods": {},
    "version": 1
  },
  "userdoc": {
    "kind": "user",
    "methods": {},
    "version": 1
  },
  "storageLayout": {
    "storage": [],
    "types": null
  }
}